:020000040000FA
:1000000000020010A9010000B1010000B3010000CE
:10001000B5010000B7010000B901000000000000B8
:10002000000000000000000000000000BB01000014
:10003000BD01000000000000BF010000C101000080
:10004000C3010000C3010000C3010000C3010000A0
:10005000C3010000C3010000C3010000C301000090
:10006000C3010000C3010000C3010000C301000080
:10007000C3010000C3010000C3010000C301000070
:10008000C3010000C3010000C3010000C301000060
:10009000C3010000C3010000C3010000C301000050
:1000A000C3010000C3010000C3010000C301000040
:1000B000C3010000C3010000C3010000C301000030
:1000C000C3010000C3010000C301000000F002F8FA
:1000D00000F041F80AA090E8000C82448344AAF1A1
:1000E0000107DA4501D100F036F8AFF2090EBAE89F
:1000F0000F0013F0010F18BFFB1A43F0010318475C
:10010000D42D0000042E0000103A24BF78C878C116
:10011000FAD8520724BF30C830C144BF04680C600D
:10012000704700000023002400250026103A28BF55
:1001300078C1FBD8520728BF30C148BF0B60704759
:10014000642902F09181002070471FB502F079FA0E
:100150001FBD10B510BD02F0F4FA1146FFF7F5FF10
:1001600001F044F802F012FB03B4FFF7F2FF03BC06
:1001700002F01AFB0B49D1F800C04A685CF8043B56
:100180001068184442F8040B8C4528BFA1F1DC0C20
:100190008A4228BFA1F1DC02C1F800C04A6020F009
:1001A0000040704720C107200948804709480047A0
:1001B000FEE7FEE7FEE7FEE7FEE7FEE7FEE7FEE717
:1001C000FEE7FEE704480549034A054B7047000077
:1001D0002D040000CD00000088C10720000200109F
:1001E00000000010F0B504460B46154619466000A5
:1001F0003B4A102901D31039401C52F820604FEAC5
:10020000410C032707FA0CF7BE4342F8206052F86E
:1002100020604F0005FA07F73E4342F82060F0BD2A
:10022000F0B504460B461546194660002C4A40328C
:10023000102901D31039401C52F820604FEA410CBC
:10024000032707FA0CF7BE4342F8206052F82060FB
:100250004F0005FA07F73E4342F82060F0BD30B585
:100260000B461F496831012A07D151F8204001256A
:100270009D402C4341F8204006E051F820400125E4
:100280009D40AC4341F8204030BD012806D11449BF
:10029000896A41F00801124A916206E028B91049C2
:1002A000896A21F008010E4A91627047012800D145
:1002B000052201B90A220A4BDA67704710B50446D5
:1002C000A27861782078FFF78DFFE2786178207856
:1002D000FFF7A6FF227961782078FFF7C0FF10BDF5
:1002E00000C0024010B5044600211120ABBE002C16
:1002F00000D0206010BD704770477047FFFFFFFFC0
:1003000097480068C0F3016003285DD194488430A9
:10031000006800F0030030B1012820D0022839D055
:10032000032850D100E000BF8D480068C0F30E00E4
:10033000401C40008B49484389498839D1F88810CE
:10034000C1F30741491CB0FBF1F185487C300068DE
:10035000C0B2401CB1FBF0F08349086033E0804834
:100360000068C0F30E00401C4000804948437C49AF
:100370008839D1F88810C1F30741491CB0FBF1F16D
:1003800077487C300068C0B2401CB1FBF0F0764981
:10039000086018E072480068C0F30E00401C0104B9
:1003A0006F488838D0F88800C0F30740401CB1FB84
:1003B000F0F16B487C300068C0B2401CB1FBF0F03B
:1003C0006949086000BF30E065488430006800F08B
:1003D000030030B1012810D0022819D0032823D1FE
:1003E00000E000BF5E487C300068C0B2401C5D4940
:1003F000B1FBF0F05C49086016E059487C300068B9
:10040000C0B2401C5949B1FBF0F0574908600BE0FD
:1004100053487C300068C0B2401C4FF40041B1FB2F
:10042000F0F05149086000BF00BF704720205049DC
:1004300008604B488838D0F8A00100F0200030B1A7
:1004400000BF4B48006800F040000028F9D00320AE
:1004500043497C310860002041498839C1F8A8012E
:1004600043490C31086001203D498431086041480E
:100470003B49091F0860AA203949091D0860552019
:1004800008600120364908390860AA203449091D4E
:100490000860552032498839C1F88C0000BF3048C7
:1004A000006800F080600028F9D003202C4908394A
:1004B0000860AA202A498839C1F88C0055202849AB
:1004C000091D086000BF2648006800F04070002841
:1004D000F9D0232022491C310860AA2020498839FC
:1004E000C1F8AC0055201E492431086001201C4988
:1004F00018310860AA201A4924310860552018498B
:100500008839C1F8AC0000BF15482030006800F4FD
:1005100080600028F8D00320114918310860AA2013
:100520000F498839C1F8AC0055200D4924310860C5
:1005300000BF0B482030006800F440700028F8D05D
:100540000D4807493C310860002005498839C1F849
:10055000C80143F23A00086000200849086070476B
:1005600088C00F4000093D0000C00720001BB700F5
:10057000A0C10F4063000500DE87280408ED00E0FD
:1005800010B50A46202801D2034601E0A0F120035D
:100590001946202810D2454B1B6803248C40A343E6
:1005A000434CC4F8A831414B1B6802FA01F42343C1
:1005B0003F4CC4F8A83111E03C4B1B1D1B680324C1
:1005C0008C40A3433A4CC4F8AC31384B1B1D1B681C
:1005D00002FA01F42343364CC4F8AC3110BD014695
:1005E000202903D20A46314B186804E0A1F1200209
:1005F0002E4B1B1D186820FA02F303F0030070470E
:1006000070B506462B4804683046FFF7E8FF0546FC
:1006100035B1012D06D0022D06D0032D08D105E0FD
:10062000042505E0012503E0022501E0082500BFBF
:1006300000BFB4FBF5F4204670BD012909D11C4A66
:10064000C43212681C4B03401A43194BC3F8C42030
:1006500009E041B9164AC4321268174B83431A4065
:10066000134BC3F8C420704700201149C031086003
:1006700030BF704704201149086008200C49C03180
:10068000086030BF704704200C4908600920084901
:10069000C031086030BF704704200849086003205B
:1006A0000349C031086030BF70470000A8C10F4047
:1006B00000C00F4000C00720DEF7EFEF10ED00E0B4
:1006C00001460020052912D2DFE801F00305080BDE
:1006D0000E00FB480CE0FA48203009E0F8484030B2
:1006E00006E0F748603003E0F548803000E000BFE6
:1006F00000BF704701460020052912D2DFE801F053
:100700000305080B0E00EE480CE0ED48203009E030
:10071000EB48403006E0EA48603003E0E8488030CB
:1007200000E000BF00BF704701460020052912D23B
:10073000DFE801F00305080B0E00E1480CE0E0489B
:10074000203009E0DE48403006E0DD48603003E05C
:10075000DB48803000E000BF00BF70472DE9F0416A
:1007600007460D4616463846FFF7AAFF04463CB139
:100770001EB120682843206002E02068A843206062
:10078000BDE8F08170B506460C463046FFF798FF8D
:10079000054605B1AC6170BD70B506460C463046E5
:1007A000FFF78EFF054605B1EC6170BD70B50546DB
:1007B0002846FFF785FF04460CB1606970BD002034
:1007C000FCE718B912B9BF4B196017E0022804D131
:1007D0001AB9BC4B2033196010E028B9012A03D1A3
:1007E000B84B1B1D196009E0022805D1012A03D16D
:1007F000B44B2433196001E000BFFEE770470346A5
:100800003BB932B9AF480C380068C84000F001006D
:100810007047022B07D132B9AA4814300068C8408B
:1008200000F00100F4E743B9012A06D1A5480838D1
:100830000068C84000F00100EAE7022B08D1012A55
:1008400006D1A04818300068C84000F00100DFE77A
:1008500000BFFEE718B99B4A121F116007E002288B
:1008600003D1984A1C32116001E000BFFEE77047D7
:1008700070B504460D461646324629462046FFF717
:100880006DFF70BD70B504460D4629462046FFF742
:1008900079FF70BD70B504460D4629462046FFF726
:1008A0007BFF70BD10B504462046FFF77FFF10BDEB
:1008B00070B504460D461646324629462046FFF7D7
:1008C00080FF70BD70B504460D4616463246294677
:1008D0002046FFF794FF70BD10B503460C46214635
:1008E0001846FFF7B7FF10BD2DE9F04107460D464A
:1008F00016463846FFF7E4FE04463CB11EB12069B7
:100900002843206102E02069A8432061BDE8F0810E
:100910002DE9F04180460E4615461F464046FFF73A
:10092000E9FE04468CB147B11EB16088284360805F
:100930000BE020882843208007E01EB16088A84390
:10094000608002E02088A8432080BDE8F0812DE986
:10095000F04180460E4615461F464046FFF7CAFE48
:1009600004468CB147B11EB1608A284360820BE017
:10097000208A2843208207E01EB1608AA843608253
:1009800002E0208AA8432082BDE8F0812DE9F041F1
:1009900007460E4614463846FFF7ACFE05461DB125
:1009A0000EB16C8300E02C83BDE8F0812DE9F041AD
:1009B00007460E4614463846FFF79CFE05461DB115
:1009C0000EB1EC8300E0AC83BDE8F08170B5064663
:1009D0000D463046FFF78EFE044624B10DB1E08A85
:1009E00070BDA08AFCE70020FAE72DE9F0418046BF
:1009F0000C4616461F464046FFF796FE05465DB17B
:100A00002FB1032C08DC285D3043285504E0032C6B
:100A100002DC285DB0432855BDE8F0812DE9F041A6
:100A200080460C4616461F464046FFF77DFE0546AB
:100A30009DB14FB1032C10DC05F11000005D304377
:100A400005F11001085508E0032C06DC05F1100043
:100A5000005DB04305F110010855BDE8F0812DE9B6
:100A6000F04107460C4615463846FFF75DFE064640
:100A700026B1032C02DC06F118000555BDE8F08113
:100A80002DE9F04107460C4615463846FFF74CFE67
:100A9000064626B1032C02DC06F11C000555BDE814
:100AA000F08170B506460C463046FFF73DFE054620
:100AB00055B1032C08DC05F11400005D70BD000089
:100AC00000C00920908002400020F7E72DE9F047A0
:100AD00004468846F648844202D0F648844200D153
:100AE00003E04321F4A000F0F9FBF148844204D173
:100AF0002A20FFF785FD074609E0EE48844204D12D
:100B00001420FFF77DFD074601E0BDE8F0870025D2
:100B10004FF0FF3902260AE0681C7043B7FBF0F97A
:100B2000C14504D96D1CFF2D01D90025B61CC14556
:100B3000F2D82068C0B2206020684FF6FF7101EA49
:100B4000052108432060F0B2206100BFDDE770B5E9
:100B500004460D46D648844202D0D648844200D18D
:100B600003E08121D4A000F0B9FBD148844204D134
:100B700001214805FFF761FD08E0CE48844204D119
:100B800001210015FFF759FD00E070BDA8882989F3
:100B90000843298A08432988084386B22660287BAF
:100BA00000F00F06666020466969FFF78FFF00BFFF
:100BB000EBE710B50446BE48844202D0BD488442EB
:100BC00000D103E0A821BCA000F088FBB848844213
:100BD00005D100214FF40010FFF72FFD06E0B548C6
:100BE000844203D100210015FFF727FD10BD10B589
:100BF0000446AF48844202D0AE48844200D103E0AC
:100C0000C021ADA000F06AFB206800F00F0010BD0D
:100C1000002141608160B7494161072101600021E5
:100C2000C1600161704770B504460D46A04884421A
:100C300002D0A048844200D103E0E5219EA000F04C
:100C40004DFB0DB1012D00D103E0E6219AA000F08B
:100C500045FB012D04D1606840F00200606003E0B4
:100C6000606800F00D00606070BD70B504460D4610
:100C70008F48844202D08F48844200D103E0FE2195
:100C80008DA000F02BFB0DB1012D00D103E0FF2161
:100C900089A000F023FB012D04D1606840F0010021
:100CA000606003E0606800F00E00606070BD70B5C9
:100CB00004460D467E48844202D07E48844200D1DC
:100CC00004E04FF48D717CA000F008FB0DB1012D04
:100CD00000D104E040F21B1177A000F0FFFA012DD3
:100CE00004D1606800F00700606003E0606840F0D5
:100CF0000800606070BD70B504460D466C488442C3
:100D000002D06C48844200D104E04FF49A716AA08A
:100D100000F0E4FAA8B2A06070BD10B504466448C3
:100D2000844202D06348844200D104E04FF4A271AF
:100D300061A000F0D3FAA06880B210BD2DE9F74F92
:100D400082B006460C460020E0606060606103E00F
:100D50003046FFF7E2FF0746F06800F00400002885
:100D6000F6D1032030623046FFF741FF082801DD4D
:100D7000012500E00025049800287AD125B9D4F88F
:100D80000890D4F800A003E0D4F808B020680190DF
:100D900060E0F06800F0020010B3216960688842EA
:100DA0002AD0206888B93DB9FF213046FFF7A3FF5C
:100DB0006068401C60601FE04FF6FF713046FFF72F
:100DC0009AFF6068801C606016E055B99AF80010C0
:100DD0003046FFF790FF0AF1010A6068401C60602E
:100DE0000AE0019801883046FFF785FF0198801CD2
:100DF00001906068801C6060D6F8188008F00100DF
:100E000038B148F4007060614FF0FF3005B0BDE8C4
:100E1000F08F17E03046FFF780FF0746A06848B123
:100E200025B989F8007009F1010903E0ABF80070F9
:100E30000BF1020B1DB9E068401CE06002E0E068C5
:100E4000801CE060F06800F0040018B1D4E90301F0
:100E50008842DFD12169606888429AD1D4E90301D0
:100E6000884296D14FF480706061206810B160684C
:100E7000CCE705E0A06808B1E068C7E70020C5E757
:100E8000049801287ED176E02068A8BB3DB9FF21F7
:100E90003046FFF730FF6068401C606041E04FF66D
:100EA000FF713046FFF727FF6068801C606038E004
:100EB00000800840000003402E2E5C4C6962726185
:100EC000726965735C4C4350313736385F537464D4
:100ED0005065726970685F4472697665725C736FA1
:100EE000757263655C6C7063313778785F737370AB
:100EF0002E63000040420F00FFE74DB9D4E9000225
:100F0000815C3046FFF7F7FE6068401C606008E0D7
:100F1000D4E90002815A3046FFF7EDFE6068801C7C
:100F20006060D6F8188008F0010028B148F400701D
:100F300060614FF0FF3069E715E03046FFF7EDFEE6
:100F40000746A06838B11DB9D4E902128F5402E0F7
:100F5000D4E902128F521DB9E068401CE06002E043
:100F6000E068801CE060F06800F0040018B1D4E98B
:100F700003018842E1D1F06800F0020030B121693C
:100F8000606800E012E088427FF47EAFD4E903019C
:100F9000884203D121696068884202D00F207061C5
:100FA00002E04FF48070606100202FE74FF0FF30C7
:100FB0002CE770B505460C467648854202D0764847
:100FC000854200D105E04FF40571AFF2141000F036
:100FD00085F9012C07D0022C05D0042C03D0082C55
:100FE00001D0102C00D105E040F21521AFF23810ED
:100FF00000F074F9E868204008B1012070BD0020BD
:10100000FCE770B504460D4616466248844202D09D
:101010006148844200D105E04FF40B71AFF26810D3
:1010200000F05CF9012E03D160692843606104E09F
:1010300060690F21A9430840606170BD70B5054625
:101040000C465448854202D05348854200D105E001
:1010500040F24921AFF2A01000F040F9012C05D078
:10106000022C03D0042C01D0082C00D105E040F262
:101070004A21AFF2BC1000F031F9A869204008B154
:10108000012070BD0020FCE710B5044641488442B1
:1010900002D04148844200D105E04FF41671AFF20E
:1010A000E81000F01BF9A06910BD70B505460C46AC
:1010B0003848854202D03848854200D105E040F2E8
:1010C0006D21AFF20C2000F009F9012C05D0022CA3
:1010D00003D0042C01D0082C00D105E040F26E2191
:1010E000AFF22C2000F0FAF8E869204008B10120A6
:1010F00070BD0020FCE770B504460D4625488442CB
:1011000002D02548844200D105E040F28121AFF2AF
:10111000582000F0E3F8012D01D0022D00D105E0A8
:1011200040F28221AFF2702000F0D8F8256270BD45
:1011300070B504460D4616461648844202D016483D
:10114000844200D105E040F29721AFF2942000F0F4
:10115000C5F8022D01D0012D00D105E04FF4267114
:10116000AFF2AC2000F0BAF80EB1012E00D105E0CC
:1011700040F29921AFF2C02000F0B0F8012E03D167
:10118000606A2843606204E0606A0321A943084062
:10119000606270BD008008400000034070B5002010
:1011A000FFF7A0F8044601F037FAFEF7E3FF044624
:1011B00000EBD4704010A4EB40050DB90A2070BDBF
:1011C0007820FCE770B50020FFF78CF8044601F0AA
:1011D00023FAFEF7CFFF044600EBD4704010A4EBD7
:1011E00040050DB93C2070BDAA20FCE71FB500F0FA
:1011F000A6F901F0CDF800F029FF39A13D4801F032
:10120000F5F81F204FF6FF733A4A1E210090202068
:1012100000F03DFE4FF47840002101220223CDE989
:101220000032CDE902106E231A463C210A2000F05C
:1012300082FE4FF47840002101220223CDE90032E2
:10124000CDE902106E231A463C21782000F073FE8F
:101250004FF47840002101220223CDE90032CDE98C
:1012600002106E231A46AA210A2000F064FE4FF4F1
:101270007840002101220223CDE90032CDE902109D
:101280006E231A46AA21782000F055FEFFF786FF4C
:101290000446FFF797FF05462B46224616A1154840
:1012A00001F0A4F81F204FF6FF73124A1E21009090
:1012B000202000F0ECFD4FF4FC600021012202230D
:1012C000CDE90032CDE902106E231A4629462046A8
:1012D00000F031FE00F0BAFE00BFFEE700BFFEE7FF
:1012E0004D65696C6C6575722073636F72653A2029
:1012F000000000000CC00720583A20256420593A0D
:1013000025640000000200BF011EA0F10100FBD116
:10131000704710B501224FF470010020FFF7A8FAC2
:1013200001224FF060711046FFF7A2FA4FF47001EE
:101330000020FFF7A7FA4FF060710120FFF7A2FA33
:1013400010BD10B5222001F099FA10BD10B5044669
:101350004FF48000FE49C86180108861204601F08A
:1013600031FA4FF40000FA49C861012001F07CFA1B
:101370004FF40000F64988614010886110BDF548BF
:101380000088704730B5014601F01F04C1F34513D2
:10139000CA0AE50205EB43151544A8B230BD70B585
:1013A00004460D46EB48008848F68911884207D16B
:1013B000A1B24E2001F082FAA9B24F2001F07EFACC
:1013C000A1B2202001F07AFAA9B2212001F076FA28
:1013D00070BD70B504460D4629462046FFF7DFFF75
:1013E000FFF7AFFF01F004FA064601F001FA0646E6
:1013F000304670BD70B50546002400210846FFF751
:10140000CEFFFFF79EFF00BF03E02846FFF79EFFD9
:10141000641CB4F5963FF8D370BD10B5CD48008874
:1014200048F68911884205D146F23001112001F0B9
:1014300045FA04E041F23001032001F03FFA0021B7
:101440000846FFF7ACFFFFF77CFF45F25550FFF76A
:101450007DFF4AF6AA20FFF779FF00210846FFF733
:101460009EFF10BD2DE9F041BA48008848F6891169
:10147000884204D041F23001032001F01FFA002518
:1014800000210846FFF78BFFFFF75BFF002405E014
:101490002846FFF75BFF681C85B2641CB4F5963FD5
:1014A000F6D30025AB48008849F22031884209D0A4
:1014B000A8480088491D884204D0A6480088C91C55
:1014C000884219D1002413E000260EE02146304660
:1014D000FFF77FFF0746FFF755FF29466A1C95B2C5
:1014E000884201D0BDE8F081761CF02EEED3641C5A
:1014F000B4F5A07FE8D320E09648008844F231514B
:10150000884205D09348008848F68911884214D152
:1015100000240FE000260AE021463046FFF759FF7D
:1015200029466A1C95B2884200D0DBE7761CF02E73
:10153000F2D3641CB4F5A07FECD300BFD2E770B542
:10154000FFF7E7FE40F2DC50FFF7DCFE0024204608
:1015500001F094F901F04CF9054600BF7D48058083
:10156000008844F23151884221D07A48008847F2FD
:10157000837188421BD07748008849F22031884225
:1015800015D074480088491D884210D071480088E1
:10159000C91C88420BD06F480088B0F5134F06D0A5
:1015A0006C48008848F68911884200D070BD6948AF
:1015B000008849F22531884204D066480088C91C59
:1015C00088427DD11021E72001F078F90121002027
:1015D00001F074F94FF48071012001F06FF94FF4BC
:1015E000E061022001F06AF941F22801032001F0D4
:1015F00065F90021042001F061F940F2072108207B
:1016000001F05CF90021092001F058F900210A20BD
:1016100001F054F901210C2001F050F900210D20B6
:1016200001F04CF900210F2001F048F900211020B1
:1016300001F044F90721112001F040F900211220A6
:1016400001F03CF90021132001F038F90F20FFF7D9
:1016500059FE41F29051102001F030F940F227215B
:10166000112001F02BF90F20FFF74CFE9C211220D6
:1016700001F024F90F20FFF745FE4FF4C851132065
:1016800001F01CF92321292001F018F90E212B204B
:1016900001F014F90F20FFF735FE0021202001F0A2
:1016A0000DF90021212001F009F90F20FFF72AFE92
:1016B0000721302001F002F940F20771312000E0EB
:1016C0008BE001F0FBF80621322001F0F7F840F240
:1016D0000471352001F0F2F841F60471362001F072
:1016E000EDF80421372001F0E9F80021382001F05D
:1016F000E5F840F20671392001F0E0F840F201719E
:101700003C2001F0DBF80F213D2001F0D7F80F203D
:10171000FFF7F8FD0021502001F0D0F8EF21512013
:1017200001F0CCF80021522001F0C8F840F23F113E
:10173000532001F0C3F84FF42741602001F0BEF8B8
:101740000121612001F0BAF800216A2004E00000C4
:1017500000C0092008C0072001F0B0F80021802057
:1017600001F0ACF80021812001F0A8F800218220CE
:1017700001F0A4F80021832001F0A0F800218420CA
:1017800001F09CF80021852001F098F810219020AC
:1017900001F094F80021922001F090F803219320A9
:1017A00001F08CF84FF48871952001F087F8002142
:1017B000972001F083F80021982001F07FF840F293
:1017C0003311072001F07AF80021202001F076F88B
:1017D0000021212001F072F812E3FC48008849F250
:1017E0002031884204D0F9480088B0F5134F7DD1EC
:1017F0000021084601F062F80021012001F05EF8A6
:101800004FF4E061022001F059F841F21801032081
:1018100001F054F80021042001F050F840F20221B8
:10182000082001F04BF80021092001F047F80021C1
:101830000A2001F043F801210C2001F03FF80021BB
:101840000D2001F03BF800210F2001F037F80F20A8
:10185000FFF758FD40F20111072001F02FF80F208B
:10186000FFF750FD4FF48651102001F027F80721B3
:10187000112001F023F84FF48871122001F01EF8B6
:101880004FF43061132001F019F80021292001F0F4
:1018900015F844F210012B2001F010F8002150201F
:1018A00001F00CF8EF21512001F008F8002152203E
:1018B00001F004F840F23F11532000F0FFFF4FF415
:1018C0002741602000F0FAFF0121612000F0F6FFBF
:1018D00000216A2000F0F2FF0021802000F0EEFFDE
:1018E0000021812000F0EAFF002100E02DE08220AD
:1018F00000F0E4FF0021832000F0E0FF00218420BD
:1019000000F0DCFF0021852000F0D8FF102190209E
:1019100000F0D4FF0021922000F0D0FF012193209D
:1019200000F0CCFF4FF48871952000F0C7FF002134
:10193000972000F0C3FF0021982000F0BFFF40F285
:101940007311072000F0BAFF5AE2A048008844F261
:10195000315188427DD10121002000F0AFFF4FF4CA
:10196000C561102000F0AAFF0621122000F0A6FF9A
:1019700040F63221132000F0A1FF4021112000F099
:101980009DFF5021152000F099FF1621122000F034
:1019900095FF0F20FFF7B6FC45F26061102000F0C4
:1019A0008DFF0F20FFF7AEFC42F64E21132000F012
:1019B00085FF0021012000F081FF4FF440710220DB
:1019C00000F07CFF41F23001032000F077FF40F28D
:1019D0000221082000F072FF00210A2000F06EFFB3
:1019E0000021302000F06AFF40F20241312000F077
:1019F00065FF4FF48371322000F060FF4FF4E06127
:101A0000332000F05BFF4FF48271342000F056FF6A
:101A100040F20131352000F051FF40F207713620CD
:101A200000F04CFF40F20531372000F047FF4FF443
:101A30000271382000F042FF40F60B71392000F0AF
:101A40003DFF0F20FFF75EFC0221412000F036FF32
:101A500000E037E04FF42741602000F02FFF012124
:101A6000612000F02BFF40F21911902000F026FFBA
:101A70004FF48571922000F021FF0421932000F0A3
:101A80001DFF4FF48071A02000F018FF0F20FFF71A
:101A900039FC0F20FFF736FC0F20FFF733FC0F2037
:101AA000FFF730FC40F23311072000F007FF0F2052
:101AB000FFF728FC0021A02000F000FF1420FFF712
:101AC00021FC9DE14148008847F2837188427CD126
:101AD0000121FF2000F0F2FE0821F32000F0EEFECD
:101AE0004FF48071012000F0E9FE4FF4E061022024
:101AF00000F0E4FE41F23001032000F0DFFE40F28E
:101B00000231082000F0DAFE40F20721082000F040
:101B1000D5FE0021092000F0D1FE00210A2000F0AE
:101B2000CDFE0021102000F0C9FE0521112000F09B
:101B3000C5FE0021122000F0C1FE0021132000F09C
:101B4000BDFE1420FFF7DEFB41F2B021102000F0B3
:101B5000B5FE1420FFF7D6FB0721112000F0AEFEE2
:101B60001420FFF7CFFB8B21122000F0A7FE1420DA
:101B7000FFF7C8FB4FF4B851132000F09FFE14206C
:101B8000FFF7C0FB2221292000F098FE0021302021
:101B900000F094FE40F20771312000F08FFE40F219
:101BA0000551322000F08AFE40F20711352000F086
:101BB00085FE0821362000F081FE0021372000F04C
:101BC0007DFE40F20221382002E040E008C00720FC
:101BD00000F074FE4FF48371392000F06FFE40F284
:101BE00002213C2000F06AFE4FF481613D2000F0AC
:101BF00065FE1420FFF786FB0021502000F05EFEFA
:101C0000EF21512000F05AFE0021522000F056FE34
:101C100040F23F11532000F051FE4FF42741602065
:101C200000F04CFE0121612000F048FE332190209D
:101C300000F044FE0B212B2000F040FE40F2331157
:101C4000072000F03BFE1420FFF75CFBD8E0714852
:101C5000008848F689118842F8D12121072000F038
:101C60002DFE0121002000F029FE2321072000F095
:101C700025FE0021102000F021FE40F6B830FFF7CD
:101C800041FB3321072000F019FE46F270011120BC
:101C900000F014FE4FF4C061022000F00FFE40F689
:101CA0000401032000F00AFE00210C2000F006FED3
:101CB00040F60C010D2000F001FE4FF424510E20DF
:101CC00000F0FCFDB8211E2000F0F8FD42F63F3187
:101CD000012000F0F3FD0021102000F0EFFD0021B5
:101CE000052000F0EBFD0021062000F0E7FD4EF698
:101CF0001C71162000F0E2FD0321172000F0DEFD2C
:101D000040F23321072000F0D9FDC0210B2000F064
:101D1000D5FD00210F2000F0D1FD0021412000F071
:101D2000CDFD0021422000F0C9FD0021482000F037
:101D3000C5FD40F23F11492000F0C0FD00214A20BE
:101D400000F0BCFD00214B2000F0B8FD4FF46F41C6
:101D5000442000F0B3FD0021452000F0AFFD40F22B
:101D60003F11462000F0AAFD40F20771302000F03C
:101D7000A5FD4FF40171312000F0A0FD4FF4017179
:101D8000322000F09BFD40F20251332000F096FD1E
:101D900040F20751342000F091FD4FF401713520DD
:101DA00000F08CFD4FF40171362000F087FD40F209
:101DB0000251372000F082FD40F202313A2000F05B
:101DC0007DFD40F202313B2000F078FD0021232010
:101DD00000F074FD0021242000F070FD4FF400415C
:101DE000252000F06BFD00214F2000F067FD002151
:101DF0004E2000F063FDFFF710FB1F20FFF7FAFAFB
:101E0000FFF70BFBFFF72EFB1F20FFF7F3FA00BFD6
:101E1000FFF7CCBB08C007202DE9F84F05460E465A
:101E2000174698460095B14600242CE0A7F1200003
:101E3000244901EB001010F804A049460098FFF770
:101E4000AEFA09F101001FFA80F9FFF77AFA4FF0B4
:101E5000000B13E00AF0800020B11FFA88F0FFF7B2
:101E600075FA03E00A9988B2FFF770FA4FEA4A6000
:101E70004FEA106A0BF1010000F0FF0BBBF1080FF5
:101E8000E8DB601CC4B2102CD0DBBDE8F88F2DE974
:101E9000F84305460E4614461F46DDF820800BE049
:101EA000CDF8008022783B4631462846FFF7B4FF44
:101EB000641C05F1080085B220780028F0D1BDE847
:101EC000F8830000D02800002DE9F05F81460D4620
:101ED00017469846DDE90AABBAF1760F14D12C46C5
:101EE0000EE021464846FFF75AFAFFF72AFA002685
:101EF00003E05846FFF72AFA761C4645F9D9641CD8
:101F0000E819A042EDD214E02C460EE021464846E6
:101F1000FFF745FAFFF715FA002603E05846FFF7EA
:101F200015FA761CBE42F9D9641C05EB0800A042E4
:101F3000ECD2BDE8F09F2DE9FC5F0746884691464C
:101F40001D46DDE90E4BDDE90C6ABAF1010F08D13F
:101F500068202B464A464146CDE9000B3846FFF73C
:101F6000B3FF682033464A464146CDE9000438466F
:101F7000FFF7AAFF762007EB0901CDE90004881BD3
:101F800033462A464146FFF79FFF6820CDE900040B
:101F900008EB0500811B33464A463846FFF794FF9D
:101FA000762033462A464146CDE900043846FFF7FD
:101FB0008BFFBDE8FC9F000011B581B00120EB490B
:101FC000086101A808600022E948FEF7B7FEC4B224
:101FD0002CB1E649C1F808D09DF800001CBD0020D6
:101FE000FCE700B589B000208DF81C0002208DF8B8
:101FF0001E0000208DF81F008DF8200007208DF8AE
:102000001D0007A8FEF75AF908208DF81D0007A843
:10201000FEF754F909208DF81D0007A8FEF74EF9C8
:102020000820019000200290039004900590D14870
:10203000069001A8FEF7ECFD01A9CD48FEF787FD4B
:102040000121CB48FEF7EFFD09B000BD1CB5002013
:102050008DF802008DF804008DF8030013208DF830
:10206000010000208DF800006846FEF727F90022E5
:102070004FF400211046FEF771FB0122D10400202D
:10208000FEF79FFB012240210020FEF767FB402165
:102090000020FEF777FBFFF7A4FF0122402100207C
:1020A000FEF75CFB40210020FEF776FB8020FFF767
:1020B00083FF012240210020FEF750FB4021002039
:1020C000FEF760FB1CBD2DE9F04196B0B5E00024A1
:1020D0003EE0012240210020FEF740FB402100208D
:1020E000FEF75AFBD020FFF767FF0020FFF764FFE1
:1020F0004006000D11A921F814009020FFF75CFFA5
:1021000011A931F8141041EAE00011A921F81400D6
:102110000020FFF751FF4006000D0CA921F8140024
:102120000020FFF749FF0CA931F8141041EAE00044
:102130000CA921F814008020FFF73EFF0122402166
:102140000020FEF70BFB40210020FEF71BFB641C68
:102150000A2CBED34FF6FF731D4600260027002130
:102160000022002032E00DF1440C3CF810C09C45E8
:1021700003D20DF1440C3CF810300DF1440C3CF846
:1021800010C0B44503D90DF1440C3CF810600DF1BA
:10219000440C3CF810C061440DF1300C3CF810C008
:1021A000AC4503D20DF1300C3CF810500DF1300C61
:1021B0003CF810C0BC4503D90DF1300C3CF8107050
:1021C0000DF1300C3CF810C06244401C0A28CAD300
:1021D000A1EB030CACEB0601A2EB050CACEB070288
:1021E000C1F3CF0CDFF89081A8F800C0C2F3CF0C88
:1021F000DFF88881A8F800C05F48028860A107A8BE
:1022000000F0F4F8404602885FA102A800F0EEF862
:102210001F2047F6FF7307AA4FF49171009000202A
:10222000FFF735FE1F2047F6FF7302AA4FF49171A6
:1022300000907820FFF72BFE00BF0020FEF7B6FAD3
:1022400000F4002000283FF442AF16B0BDE8F08152
:102250002DE9F0418AB000243BE00122402100201A
:10226000FEF77CFA40210020FEF796FAD020FFF717
:10227000A3FE0020FFF7A0FE4006000D05A921F8EF
:1022800014009020FFF798FE05A931F8141041EAD8
:10229000E00005A921F814000020FFF78DFE40069C
:1022A000000D2DF814000020FFF786FE3DF81410F5
:1022B00041EAE0002DF814008020FFF77DFE0122A6
:1022C00040210020FEF74AFA40210020FEF75AFA8A
:1022D000641C0A2CC1D34FF6FF731D46002600274D
:1022E00000210022002028E00DF1140C3CF810C061
:1022F0009C4503D20DF1140C3CF810300DF1140C78
:102300003CF810C0B44503D90DF1140C3CF8106032
:102310000DF1140C3CF810C061443DF810C0AC4500
:1023200001D23DF810503DF810C0BC4501D93DF830
:1023300010703DF810C06244401C0A28D4D3A1EBB1
:10234000030CACEB0601A2EB050CACEB0702C1F3EE
:10235000CF0CDFF82480A8F800C0C2F3CF0CDFF860
:102360001C80A8F800C00AB0BDE8F0812CC007208E
:1023700000000340801A060004C0072006C00720A2
:10238000583A202530346400593A2025303464000E
:102390001CB500208DF800001B208DF801000120E5
:1023A0008DF802008DF803008DF804006846FDF7F3
:1023B00085FF00208DF800001C208DF80100012011
:1023C0008DF802008DF803008DF804006846FDF7D3
:1023D00075FF00224FF480610220FEF7BFF9002252
:1023E0004FF400610220FEF7B9F91CBD0FB41CB513
:1023F000084B06AA7B4469460090059800F089F9CD
:1024000004460020694600F097F920461CBC5DF8A0
:1024100014FB00004103000070B5044685690068A4
:10242000C10601D5302600E02026C00707D070BDC8
:10243000D4E9012130469047206A401C20626D1E7D
:10244000F6D570BD70B5044685690078C00707D120
:1024500070BDD4E9012120209047206A401C2062F1
:102460006D1EF6D570BD00002DE9F0410646002432
:1024700010687529314616A510D0AFF300800028EA
:1024800002DA404213A507E031688A0701D512A598
:1024900002E0490704D511A5012401E0AFF3008053
:1024A00000210A2206F1240709E0B0FBF2FCB0FB90
:1024B000F2F302FB1C00303078541846491C002807
:1024C000F3D123462A463046BDE8F04100F0C3B8B8
:1024D000000000002D0000002B0000002000000084
:1024E0002DE9F05F894604464FF0000ADFF824B179
:1024F000FB44C0F820A02046E168884700287DD032
:10250000252806D0D4E901219047206A401C20628A
:10251000F1E700255F462046E16888472028064607
:1025200007DB312E05D2B81910F8200C08B105438D
:10253000F1E7A80701D525F00405C4F81CA0002781
:10254000C4F818A02A2E09D0304600F033F938B369
:1025500004EB8708303EC8F8186019E059F8041BEE
:10256000204604EB87029161E1688847012F064607
:1025700018D1E069002820DA25F020051DE0D8F800
:10258000180000EB800006EB40003038C8F8180057
:102590002046E1688847064600F00CF90028EED195
:1025A000012F0AD02E2E08D12046E16888477F1CD3
:1025B0000646022F45F02005C4DBA069002803DA97
:1025C000404245F00105A061E80701D025F0100563
:1025D000A6B1A6F14100192802D8203645F40065BD
:1025E0004A463146204625604D46FDF7A9FD60B1BB
:1025F000012807D0ED1D25F0070000E007E000F1FD
:10260000080978E705F1040975E730467AE7206A9A
:10261000BDE8F09FCC0900000B4910B5A1F17C0288
:102620000A4CC2E93712372106E000EB104342F8AA
:102630002130074B00FB03400B1EA1F10101F4DC2C
:1026400010BD0120E8E70000C0C00720E119D666F0
:10265000CD0D010070472DE9F0470D469946924691
:10266000044600F124080168880604D5E06921F0D9
:102670001001216000E00120A84201DD471B00E0BD
:102680000027A1697A1902EB0900081AA0612078D5
:10269000C00602D42046FFF7BFFE002608E0D4E9BA
:1026A00001211AF806009047206A401C761C20621F
:1026B0004E45F4DB2078C0060AD52046FFF7ACFE75
:1026C00006E0D4E9012130209047206A401C2062B6
:1026D000381EA7F10107F4DC07E0D4E9012118F85E
:1026E00005009047206A401C2062281EA5F10105C4
:1026F000F3DC2046FFF7A6FE2078000602D5022074
:10270000BDE8F0870120FBE701694A1C02610878F7
:10271000704700B58FB0CDE9013100210591054921
:102720007944CDE9031011466846FFF7D9FE0FB092
:1027300000BD0000E5FFFFFF0A6802F8010B0A6018
:102740007047754600F02CF8AE46050069465346C2
:1027500020F00700854618B020B5FDF733FDBDE831
:1027600020404FF000064FF000074FF000084FF0F8
:10277000000B21F00701AC46ACE8C009ACE8C00989
:10278000ACE8C009ACE8C0098D46704710B50446F6
:10279000AFF300802046BDE81040FDF7E5BC000027
:1027A0000048704728C1072001491820ABBEFEE74A
:1027B0002600020030380A2801D20120704700208C
:1027C000704700000949096C41F0FF01074A116494
:1027D0004FF0807191634900D163114648654FF411
:1027E00000019163D16301125165704700C0092057
:1027F00070B500254FF480001A49C86180108861C7
:10280000C00088618010C861012000F02DF800BF71
:102810001448006C20F0FF00124908644FF08070EB
:10282000C8634000C863322000F01EF80D485430E1
:1028300004784FF000700B498863322000F014F8E0
:10284000084890F8540040EA04244FF0807005498D
:10285000886300BF2546C010886140008861284613
:1028600070BD000000C0092008B5009000BF0099AD
:102870004A1E00920029FAD108BD000010B5044696
:102880004FF480000C49C8618010C8614000886125
:102890002046FFF797FF4620FFF7E6FF4FF40000C2
:1028A0000549C8610120FFF7DFFF4FF4000002492E
:1028B00088614010886110BD00C0092070B50546D0
:1028C0000C462846FFF7DAFF2046FEF73FFD70BDB5
:1028D00000000000000000000000000000000000F8
:1028E00000000000183C3C3C1818001818000000BC
:1028F00000000000666666000000000000000000A6
:102900000000000036367F3636367F36360000004F
:10291000000018183C666030180C06663C18180059
:1029200000000070D8DA760C18306E5B1B0E0000C9
:1029300000000000386C6C38606F66663B00000079
:10294000000000001818180000000000000000003F
:10295000000000000C1818303030303018180C000F
:10296000000000003018180C0C0C0C0C181830006B
:10297000000000000000361C7F1C36000000000034
:1029800000000000000018187E1818000000000069
:10299000000000000000000000001C1C0C180000DB
:1029A000000000000000007E0000000000000000A9
:1029B000000000000000000000001C1C00000000DF
:1029C00000000006060C0C18183030606000000093
:1029D0000000001E333737333B3B331E000000003E
:1029E0000000000C1C7C0C0C0C0C0C0C00000000FB
:1029F0000000003C6666060C1830607E0000000097
:102A00000000003C6666061C0666663C000000008E
:102A10000000003030363636667F060600000000C3
:102A20000000007E6060607C06060C7800000000FC
:102A30000000001C18307C666666663C00000000E2
:102A40000000007E060C0C1818303030000000002A
:102A50000000003C6666763C6E66663C0000000046
:102A60000000003C666666663E0C183800000000F8
:102A700000000000001C1C0000001C1C00000000E6
:102A800000000000001C1C0000001C1C0C180000B2
:102A9000000000060C18306030180C060000000022
:102AA0000000000000007E007E000000000000002A
:102AB0000000006030180C060C18306000000000A8
:102AC0000000003C66660C18180018180000000092
:102AD0000000007EC3C3CFDBDBCFC07F000000005F
:102AE000000000183C6666667E66666600000000B0
:102AF0000000007C6666667C6666667C00000000FE
:102B00000000003C666660606066663C0000000095
:102B1000000000786C66666666666C7800000000EF
:102B20000000007E6060607C6060607E00000000ED
:102B30000000007E6060607C6060606000000000FB
:102B40000000003C666660606E66663E0000000045
:102B5000000000666666667E6666666600000000C7
:102B60000000003C181818181818183C0000000045
:102B700000001E0C0C0C0C0CCCCCCC78000000001F
:102B800000000066666C6C786C6C66660000000085
:102B900000000060606060606060607E00000000B7
:102BA0000000006363776B6B6B636363000000007E
:102BB0000000006363737B6F676363630000000062
:102BC0000000003C666666666666663C00000000C3
:102BD0000000007C6666667C60606060000000004B
:102BE0000000003C666666666666663C0C06000091
:102BF0000000007C6666667C6C666666000000000D
:102C00000000003C666030180C06663C00000000C6
:102C10000000007E18181818181818180000000076
:102C200000000066666666666666663C0000000038
:102C3000000000666666666666663C180000000076
:102C40000000006363636B6B6B3636360000000078
:102C500000000066663418182C66666600000000E6
:102C6000000000666666663C181818180000000030
:102C70000000007E06060C183060607E0000000038
:102C80000000003C303030303030303030303C00EC
:102C90000000006060303018180C0C0606000000C0
:102CA0000000003C0C0C0C0C0C0C0C0C0C0C3C0034
:102CB00000183C660000000000000000000000005A
:102CC0000000000000000000000000000000FF0005
:102CD0000038180C00000000000000000000000098
:102CE00000000000003C06063E66663E0000000054
:102CF00000000060607C66666666667C000000001E
:102D000000000000003C66606060663C000000005F
:102D100000000006063E66666666663E000000002D
:102D200000000000003C66667E60603C0000000021
:102D30000000001E3030307E3030303000000000A7
:102D400000000000003E66666666663E06067C0081
:102D500000000060607C66666666666600000000D3
:102D600000001818007818181818187E00000000C5
:102D700000000C0C003C0C0C0C0C0C0C0C0C780027
:102D8000000000606066666C786C6666000000009B
:102D900000000078181818181818187E0000000095
:102DA00000000000007E6B6B6B6B6B63000000002B
:102DB00000000000007C6666666666660000000033
:102DC00000000000003C66666666663C000000008D
:102DD00000000000007C66666666667C60606000DD
:102DE00000000000003E66666666663E0606060057
:102DF0000000000000666E7060606060000000000F
:102E000000000000003E60603C06067C0000000000
:102E100000000030307E30303030301E00000000C6
:102E200000000000006666666666663E0000000000
:102E3000000000000066666666663C180000000040
:102E40000000000000636B6B6B6B36360000000007
:102E5000000000000066663C183C6666000000004A
:102E600000000000006666666666663C0C18F000AE
:102E700000000000007E060C1830607E000000009C
:102E80000000000C1818183060301818180C0000DA
:102E90000000001818181818181818181818180012
:102EA000000000301818180C060C18181830000014
:102EB00000000071DB8E0000000000000000000038
:102EC00004000008000000000000000200010000F3
:102ED00010000000042F000000C007200C000000BC
:102EE00008010000042F0000000000100002000094
:102EF00024010000102F00000CC007207C010000FE
:102F00002401000000E1F5050000000000000000C1
:04000005000000CD2A
:00000001FF
